{
  "contractName": "DiaryChain",
  "abi": [
    {
      "inputs": [
        {
          "internalType": "string",
          "name": "_date",
          "type": "string"
        },
        {
          "internalType": "string",
          "name": "_time",
          "type": "string"
        },
        {
          "internalType": "string",
          "name": "_category",
          "type": "string"
        },
        {
          "internalType": "string",
          "name": "_name",
          "type": "string"
        },
        {
          "internalType": "string",
          "name": "_description",
          "type": "string"
        },
        {
          "internalType": "bool",
          "name": "_isLifeEvent",
          "type": "bool"
        }
      ],
      "name": "addEntry",
      "outputs": [],
      "stateMutability": "nonpayable",
      "type": "function"
    },
    {
      "inputs": [
        {
          "internalType": "uint256",
          "name": "index",
          "type": "uint256"
        }
      ],
      "name": "getEntry",
      "outputs": [
        {
          "internalType": "string",
          "name": "",
          "type": "string"
        },
        {
          "internalType": "string",
          "name": "",
          "type": "string"
        },
        {
          "internalType": "string",
          "name": "",
          "type": "string"
        },
        {
          "internalType": "string",
          "name": "",
          "type": "string"
        },
        {
          "internalType": "string",
          "name": "",
          "type": "string"
        },
        {
          "internalType": "bool",
          "name": "",
          "type": "bool"
        }
      ],
      "stateMutability": "view",
      "type": "function"
    },
    {
      "inputs": [],
      "name": "getEntryCount",
      "outputs": [
        {
          "internalType": "uint256",
          "name": "",
          "type": "uint256"
        }
      ],
      "stateMutability": "view",
      "type": "function"
    }
  ],
  "bytecode": "0x608060405234801561000f575f80fd5b50610cfc8061001d5f395ff3fe608060405234801561000f575f80fd5b506004361061003f575f3560e01c80637a360e6514610043578063bae78d7b14610061578063d2b41c3d14610096575b5f80fd5b61004b6100b2565b6040516100589190610558565b60405180910390f35b61007b600480360381019061007691906105ac565b6100bd565b60405161008d9695949392919061067b565b60405180910390f35b6100b060048036038101906100ab9190610853565b610455565b005b5f8080549050905090565b60608060608060605f8080549050871061010c576040517f08c379a0000000000000000000000000000000000000000000000000000000008152600401610103906109b2565b60405180910390fd5b5f8088815481106101205761011f6109d0565b5b905f5260205f2090600602016040518060c00160405290815f8201805461014690610a2a565b80601f016020809104026020016040519081016040528092919081815260200182805461017290610a2a565b80156101bd5780601f10610194576101008083540402835291602001916101bd565b820191905f5260205f20905b8154815290600101906020018083116101a057829003601f168201915b505050505081526020016001820180546101d690610a2a565b80601f016020809104026020016040519081016040528092919081815260200182805461020290610a2a565b801561024d5780601f106102245761010080835404028352916020019161024d565b820191905f5260205f20905b81548152906001019060200180831161023057829003601f168201915b5050505050815260200160028201805461026690610a2a565b80601f016020809104026020016040519081016040528092919081815260200182805461029290610a2a565b80156102dd5780601f106102b4576101008083540402835291602001916102dd565b820191905f5260205f20905b8154815290600101906020018083116102c057829003601f168201915b505050505081526020016003820180546102f690610a2a565b80601f016020809104026020016040519081016040528092919081815260200182805461032290610a2a565b801561036d5780601f106103445761010080835404028352916020019161036d565b820191905f5260205f20905b81548152906001019060200180831161035057829003601f168201915b5050505050815260200160048201805461038690610a2a565b80601f01602080910402602001604051908101604052809291908181526020018280546103b290610a2a565b80156103fd5780601f106103d4576101008083540402835291602001916103fd565b820191905f5260205f20905b8154815290600101906020018083116103e057829003601f168201915b50505050508152602001600582015f9054906101000a900460ff1615151515815250509050805f015181602001518260400151836060015184608001518560a001519650965096509650965096505091939550919395565b5f6040518060c00160405280888152602001878152602001868152602001858152602001848152602001831515815250908060018154018082558091505060019003905f5260205f2090600602015f909190919091505f820151815f0190816104be9190610bf7565b5060208201518160010190816104d49190610bf7565b5060408201518160020190816104ea9190610bf7565b5060608201518160030190816105009190610bf7565b5060808201518160040190816105169190610bf7565b5060a0820151816005015f6101000a81548160ff0219169083151502179055505050505050505050565b5f819050919050565b61055281610540565b82525050565b5f60208201905061056b5f830184610549565b92915050565b5f604051905090565b5f80fd5b5f80fd5b61058b81610540565b8114610595575f80fd5b50565b5f813590506105a681610582565b92915050565b5f602082840312156105c1576105c061057a565b5b5f6105ce84828501610598565b91505092915050565b5f81519050919050565b5f82825260208201905092915050565b5f5b8381101561060e5780820151818401526020810190506105f3565b5f8484015250505050565b5f601f19601f8301169050919050565b5f610633826105d7565b61063d81856105e1565b935061064d8185602086016105f1565b61065681610619565b840191505092915050565b5f8115159050919050565b61067581610661565b82525050565b5f60c0820190508181035f8301526106938189610629565b905081810360208301526106a78188610629565b905081810360408301526106bb8187610629565b905081810360608301526106cf8186610629565b905081810360808301526106e38185610629565b90506106f260a083018461066c565b979650505050505050565b5f80fd5b5f80fd5b7f4e487b71000000000000000000000000000000000000000000000000000000005f52604160045260245ffd5b61073b82610619565b810181811067ffffffffffffffff8211171561075a57610759610705565b5b80604052505050565b5f61076c610571565b90506107788282610732565b919050565b5f67ffffffffffffffff82111561079757610796610705565b5b6107a082610619565b9050602081019050919050565b828183375f83830152505050565b5f6107cd6107c88461077d565b610763565b9050828152602081018484840111156107e9576107e8610701565b5b6107f48482856107ad565b509392505050565b5f82601f8301126108105761080f6106fd565b5b81356108208482602086016107bb565b91505092915050565b61083281610661565b811461083c575f80fd5b50565b5f8135905061084d81610829565b92915050565b5f805f805f8060c0878903121561086d5761086c61057a565b5b5f87013567ffffffffffffffff81111561088a5761088961057e565b5b61089689828a016107fc565b965050602087013567ffffffffffffffff8111156108b7576108b661057e565b5b6108c389828a016107fc565b955050604087013567ffffffffffffffff8111156108e4576108e361057e565b5b6108f089828a016107fc565b945050606087013567ffffffffffffffff8111156109115761091061057e565b5b61091d89828a016107fc565b935050608087013567ffffffffffffffff81111561093e5761093d61057e565b5b61094a89828a016107fc565b92505060a061095b89828a0161083f565b9150509295509295509295565b7f496e6465782061757373657268616c62206465722052656963687765697465005f82015250565b5f61099c601f836105e1565b91506109a782610968565b602082019050919050565b5f6020820190508181035f8301526109c981610990565b9050919050565b7f4e487b71000000000000000000000000000000000000000000000000000000005f52603260045260245ffd5b7f4e487b71000000000000000000000000000000000000000000000000000000005f52602260045260245ffd5b5f6002820490506001821680610a4157607f821691505b602082108103610a5457610a536109fd565b5b50919050565b5f819050815f5260205f209050919050565b5f6020601f8301049050919050565b5f82821b905092915050565b5f60088302610ab67fffffffffffffffffffffffffffffffffffffffffffffffffffffffffffffffff82610a7b565b610ac08683610a7b565b95508019841693508086168417925050509392505050565b5f819050919050565b5f610afb610af6610af184610540565b610ad8565b610540565b9050919050565b5f819050919050565b610b1483610ae1565b610b28610b2082610b02565b848454610a87565b825550505050565b5f90565b610b3c610b30565b610b47818484610b0b565b505050565b5b81811015610b6a57610b5f5f82610b34565b600181019050610b4d565b5050565b601f821115610baf57610b8081610a5a565b610b8984610a6c565b81016020851015610b98578190505b610bac610ba485610a6c565b830182610b4c565b50505b505050565b5f82821c905092915050565b5f610bcf5f1984600802610bb4565b1980831691505092915050565b5f610be78383610bc0565b9150826002028217905092915050565b610c00826105d7565b67ffffffffffffffff811115610c1957610c18610705565b5b610c238254610a2a565b610c2e828285610b6e565b5f60209050601f831160018114610c5f575f8415610c4d578287015190505b610c578582610bdc565b865550610cbe565b601f198416610c6d86610a5a565b5f5b82811015610c9457848901518255600182019150602085019450602081019050610c6f565b86831015610cb15784890151610cad601f891682610bc0565b8355505b6001600288020188555050505b50505050505056fea2646970667358221220a9dc4af6975dc3944134b95f7adc9c398981895ed4d6366f949dc178c8b6035564736f6c63430008150033",
  "immutableReferences": {},
  "source": "// SPDX-License-Identifier: MIT\r\npragma solidity ^0.8.0;\r\n\r\ncontract DiaryChain {\r\n    struct DiaryEntry {\r\n        string date;           // Datum im Format \"YYYY-MM-DD\"\r\n        string time;           // Uhrzeit im Format \"HH:MM\"\r\n        string category;       // Kategorie des Eintrags\r\n        string name;           // Name oder Titel des Eintrags\r\n        string description;    // Beschreibung oder Inhalt des Eintrags\r\n        bool isLifeEvent;      // Boolean fr Leben oder Tod\r\n    }\r\n\r\n    DiaryEntry[] private entries;\r\n\r\n    function addEntry(\r\n        string memory _date, \r\n        string memory _time, \r\n        string memory _category, \r\n        string memory _name, \r\n        string memory _description,\r\n        bool _isLifeEvent\r\n    ) public {\r\n        entries.push(DiaryEntry(_date, _time, _category, _name, _description, _isLifeEvent));\r\n    }\r\n\r\n    function getEntry(uint index) public view returns (string memory, string memory, string memory, string memory, string memory, bool) {\r\n        require(index < entries.length, \"Index ausserhalb der Reichweite\");\r\n        DiaryEntry memory entry = entries[index];\r\n        return (entry.date, entry.time, entry.category, entry.name, entry.description, entry.isLifeEvent);\r\n    }\r\n\r\n    function getEntryCount() public view returns (uint) {\r\n        return entries.length;\r\n    }\r\n}\r\n",
  "sourcePath": "C:\\Users\\marku\\OneDrive\\Desktop\\git\\moneyPrint\\LifeDeathCoin\\contracts\\diaryChain.sol",
  "compiler": {
    "name": "solc",
    "version": "0.8.21+commit.d9974bed.Emscripten.clang"
  },
  "schemaVersion": "3.4.16",
  "updatedAt": "2023-12-31T16:31:42.684Z",
  "devdoc": {
    "kind": "dev",
    "methods": {},
    "version": 1
  },
  "userdoc": {
    "kind": "user",
    "methods": {},
    "version": 1
  }
}